:020000040800F2
:100000000000022065050008DC050008DE05000888
:10001000E0050008E2050008E4050008E605000820
:10002000E6050008E6050008E6050008E605000804
:10003000E6050008E60500089D020008C939000829
:10004000BD0C0008C50C0008CD0C0008D50C00083C
:10005000DD0C0008E50C0008ED0C0008F50C0008AC
:10006000FD0C0008050D00080D0D0008150D000819
:100070001D0D0008250D00082D0D0008350D000888
:100080003D0D0008450D00084D0D0008550D0008F8
:100090005D0D0008650D00086D0D0008750D000868
:1000A0007D0D0008850D00088D0D0008950D0008D8
:1000B0009D0D0008A50D0008AD0D0008B50D000848
:1000C000BD0D0008C50D0008CD0D0008D50D0008B8
:1000D000DD0D0008E50D0008ED0D0008F50D000828
:1000E000FD0D0008050E00080D0E0008150E000895
:1000F0001D0E0008250E00082D0E0008350E000804
:100100003D0E0008450E00084D0E0008550E000873
:100110005D0E0008650E00086D0E0008750E0008E3
:100120007D0E0008850E00088D0E0008950E000853
:100130009D0E0008A50E0008AD0E0008B50E0008C3
:10014000BD0E0008C50E0008CD0E0008D50E000833
:10015000DD0E0008E50E0008ED0E0008F50E0008A3
:10016000FD0E0008050F00080D0F0008150F000810
:100170001D0F0008250F00082D0F0008350F00087F
:080180003D0F0008450F0008C7
:1001880010B5054C237833B9044B13B10448AFF3C9
:1001980000800123237010BD6C03002000000000C4
:1001A8003C710008084B10B51BB108480849AFF36B
:1001B80000800848036803B910BD074B002BFBD02B
:1001C800BDE81040184700BF000000003C7100085F
:1001D800700300206C03002000000000EFF3098189
:1001E80041B1F1EE101A40F8041D20ED200A3D49F6
:1001F8000A6810607047B0EC200A02C8E1EE101AD5
:1002080039490A681060704772B64EF62250CEF22D
:10021800000040F2FF01C0F2000101704FF0000041
:1002280080F3098803F088FB41F6E820C2F2000059
:10023800016881F3088841F20C70C2F2000041F2B3
:100248000071C2F200010A78027041F2D475C2F25C
:10025800000541F2E071C2F200010A682A601068E4
:1002680080F30988EFF3148040F0020080F31488CB
:10027800BFF36F8FBDE8F00F0FBCBDE8005006BCA0
:1002880062B6084719481A49016070471748184963
:100298000160704772B6EFF3098020E9F00F41F270
:1002A800D475C2F200052E683060744603F044FB32
:1002B80041F20C70C2F2000041F20071C2F200017A
:1002C8000A78027041F2E071C2F200010A682A60FD
:1002D80044F0F40E1068B0E8F00F80F3098862B6B5
:1002E80070470000D4170020E017002004ED00E05C
:1002F8000000001072B6704762B67047EFF31080C6
:1003080072B6704780F31088704730BF704720BFBF
:100318007047B0FA80F0704790FAA0F0B0FA80F019
:10032800704790FAA0F07047002800D17047002964
:1003380000D17047002A00D170472DE9F81F00F05E
:10034800030301F00304A34211D1C3F1040303F032
:100358000303012B1DD3012A00D2F2E011F8014B4F
:1003680000F8014BA3F10103A2F10102F1E700F04B
:10037800010301F00104A34200D094E0012B44D30F
:1003880011F8014B00F8014BA3F10103A2F101029E
:10039800F4E7B2F5B47F26D3B1E8F81FA0E8F81F58
:1003A800B1E8F81FA0E8F81FB1E8F81FA0E8F81FA7
:1003B800B1E8F81FA0E8F81FB1E8F81FA0E8F81F97
:1003C800B1E8F81FA0E8F81FB1E8F81FA0E8F81F87
:1003D800B1E8F81FA0E8F81FB1E8F81FA0E8F81F77
:1003E800A2F5B472D5E7282A06D3B1E8F81FA0E829
:1003F800F81FA2F12802F6E7042A06D351F8043BB5
:1004080040F8043BA2F10402F6E7202A42D331F86F
:10041800023B20F8023B31F8023B20F8023B31F85E
:10042800023B20F8023B31F8023B20F8023B31F84E
:10043800023B20F8023B31F8023B20F8023B31F83E
:10044800023B20F8023B31F8023B20F8023B31F82E
:10045800023B20F8023B31F8023B20F8023B31F81E
:10046800023B20F8023B31F8023B20F8023B31F80E
:10047800023B20F8023B31F8023B20F8023B31F8FE
:10048800023B20F8023B31F8023B20F8023BA2F184
:100498002002BAE7022A06D331F8023B20F8023BD1
:1004A800A2F10202F6E7102A42D311F8013B00F844
:1004B800013B11F8013B00F8013B11F8013B00F842
:1004C800013B11F8013B00F8013B11F8013B00F832
:1004D800013B11F8013B00F8013B11F8013B00F822
:1004E800013B11F8013B00F8013B11F8013B00F812
:1004F800013B11F8013B00F8013B11F8013B00F802
:10050800013B11F8013B00F8013B11F8013B00F8F1
:10051800013B11F8013B00F8013B11F8013B00F8E1
:10052800013B11F8013B00F8013BA2F11002BAE7C8
:10053800012A06D311F8013B00F8013BA2F10102A0
:10054800F6E7BDE8F81F704710F8012B11F8013BDA
:10055800012A28BF9A42F7D0D01A7047DFF854D042
:10056800002103E0144B5B58435004311348144BEB
:1005780042189A42F6D3134A02E0002342F8043B99
:10058800114B9A42F9D300F0DDFCDFF84000016816
:1005980041F470010160BFF34F8FDFF83400016848
:1005A80021F040410160BFF36F8F06F05BF900F066
:1005B800A5F87047000002200C7400080000002015
:1005C8006C0300206C030020D01E012088ED00E0A1
:1005D80034EF00E0FEE7FEE7FEE7FEE7FEE7FEE7B2
:1005E80008B5104804F02CFC0F4804F029FC0F480B
:1005F80004F026FC0E4804F023FC0E4804F020FC0E
:100608000D4804F01DFC0D4804F01AFC0C4804F0D9
:1006180017FC0C4804F014FC0B4804F011FC0020F3
:1006280008BD00BF280000209C000020D800002042
:1006380000000020C400002014000020EC0000206E
:100648008800002020010020B0000020704700BF73
:10065800704700BF704700BF704700BF704700BFBA
:10066800704700BF03F00CBC2DE9F84FFFF746FEBA
:10067800044603F02DFA134A134BDFF86890DFF8AD
:1006880068C0124F124D1349DFF860B0DFF860E020
:100698001148C2F800B0DFF85CA0DFF85C800F4EAC
:1006A8000F4AC9F800A0CCF80080C7F800E02E6017
:1006B80008601A6003F062FA2046BDE8F84FFFF7B9
:1006C80021BE00BF08170020F0170020C81900201D
:1006D800E8190020D41900206906000865060008FA
:1006E8006D060008EC17002070150020550600085C
:1006F80061060008590600085D060008F0B583B0D9
:1007080003F0A8FB03F0E8FA03F030FB00F0A0FACE
:10071800FFF7AAFF0DF10600344F01F0BFFF3C467A
:1007280007F1A005002120460A46283404F0AEFA55
:10073800AC42F7D1012200212D482E4D2E4E2F4CD0
:1007480004F0A4FA4FF40071002006F03DF82C4B99
:100758004FF400611860284604F090FA294A0023F3
:100768002946304604F046FA0121304604F08AFA58
:1007780020684FF4806105EBC00004F07FFA206820
:10078800012106EB800004F07DFA21681E4A4B1E09
:1007980003EB830307EBC30306EB810005EBC10101
:1007A80004F028FA2368013305EBC3004FF4806195
:1007B800236004F063FA2068012106EB800004F04E
:1007C80061FA2168114A4B1E03EB830306EB810093
:1007D80007EBC30305EBC10104F00CFA23680DF124
:1007E80006000133236001F001FFFEE72C0500201D
:1007F80000050020CC050020F40500205C01002045
:100808002805002075080008E1090008290A0008E1
:100818000FB430B5A3B026AB02A853F8044B01932C
:100828000021802203F002FA2246019B0D4C02A807
:100838007F2106F06FF84FF4805102A803F09AFA6E
:100848000546204604F046FA074B02A92A461868CE
:1008580004F058FB204604F02BFA23B0BDE83040E2
:1008680004B0704700050020580100202DE9F04130
:100878008EB000F03FF903F041F904F003FBFFF7F5
:10088800AFFE00214248434D434E444F04F00AFB5B
:1008980000212860424804F005FB002168604148B7
:1008A80004F000FB0021A8603F4804F0FBFA002197
:1008B800E8603E4804F0F6FA022130603C4804F053
:1008C800F1FA0028386050DB03AA012104F056FB36
:1008D800059B039C0499069D386823F48B5323F0E9
:1008E8001F0343F4C55324F4EE5443F010034FF4AC
:1008F800E13E4FF0640C03AA21F00D0724F0110427
:10090800022125F01B054FF0010805938DF822C040
:10091800CDF830E0CDF834E00394069504978DF8CF
:10092800238004F02BFB2348FFF772FF2248FFF7D0
:100938006FFF3368002B27DB204804F0B9F9204803
:1009480004F0B6F91F4804F0B3F91F4804F0B0F9F1
:10095800012005F001FF00221C4B0192029301AC1B
:100968002046002105F00CFFFAE70022184B0192FF
:10097800029301AC68680121002204F0FFFA2046C6
:10098800002105F0FDFEF5E71248FFF741FFD3E728
:10099800BC710008480100204401002058010020D3
:1009A800A87100089C710008B071000894710008D3
:1009B800C8710008DC710008FC7100082C050020D3
:1009C800540500207C050020A405002080B2E60E16
:1009D80000E1F5052072000870B58CB004F07AF9D2
:1009E8000C480D4D0D4EFFF713FF01220023029214
:1009F800039302AC20222868009404A9002305F080
:100A0800F9FEC2B2002AF5D0306804A904F07AFAD7
:100A1800F0E700BF387200082805002058010020C0
:100A28002DE9F0432B4DDFF8C490DFF8C48087B080
:100A380003A90446286804F027FB0022264B0492E9
:100A48002046059304F046F92448FFF7E1FE2E46B8
:100A580004AF0022134603A92868009704F0ACFAF3
:100A6800041E03A9224619DD306804F011FB012297
:100A78000DF10B0100B3306804F062FA0028184841
:100A8800E7DD9DF90B10FFF7C3FE9DF80B3089F8E1
:100A98000030722BDDD104F09BF8DAE74FF001014A
:100AA80010D1D8F8080004F069FA2246D8F80400F2
:100AB800012104F063FACCE70A483168039AFFF78A
:100AC800A7FEC6E721460848FFF7A2FE012005F069
:100AD80043FEFBE758010020A08601005872000879
:100AE8007472000878720008887200088803002071
:100AF80048010020F0B595B000F0C4F8002403F0D8
:100B080067FB224A0194116C214B41F0805111641A
:100B1800126C02F080520192019A02941A6842F40F
:100B280080421A601B6803F4804302930225012364
:100B38004FF4A871072219264FF4800708A8DDF89A
:100B480008E0089309931096119113920E95129547
:100B58000F970F2603F062FB4FF480534FF4A05217
:100B6800052103A80793069204950594039603F0BC
:100B780009FD03F093F941F20103984204D1054AB3
:100B8800136843F48073136015B0F0BD0038024059
:100B980000700040003C024003F032BE08B503F08C
:100BA8002FFE044B1B68B0FBF3F0BDE8084002F0D1
:100BB8001FBF00BF1873000808B5002003F074F9C0
:100BC800034B1B780BB1FFF7E9FF002008BD00BFFE
:100BD8007D15002038B5FFF7DFFF0849084C0B6882
:100BE800084A43F0807300250B602560136843F0C2
:100BF80001031360BDE8384002F030BFFCED00E0AF
:100C0800041000E0001000E0014B1868704700BFB6
:100C1800041000E0FEE700BF38B50446FFF76EFB9E
:100C2800054602F055FF01F0F9FB02F0A7FF284640
:100C3800FFF768FB512C04D8044B53F8243003B158
:100C48009847BDE8384001F0F9BB00BF8C0300208D
:100C5800FFF750BB512800D9704770B50D460446C0
:100C6800FFF74CFB064602F033FF054B43F82450D0
:100C780002F084FF3046BDE87040FFF743BB00BF79
:100C88008C030020F8B5094C094F04F5A476FFF74A
:100C980035FB054602F01CFF44F8047F02F06EFFA6
:100CA8002846FFF72FFBB442F1D1F8BD8803002096
:100CB8001D0C00080020FFF7AFBF00BF0120FFF7A1
:100CC800ABBF00BF0220FFF7A7BF00BF0320FFF79D
:100CD800A3BF00BF0420FFF79FBF00BF0520FFF799
:100CE8009BBF00BF0620FFF797BF00BF0720FFF795
:100CF80093BF00BF0820FFF78FBF00BF0920FFF791
:100D08008BBF00BF0A20FFF787BF00BF0B20FFF78C
:100D180083BF00BF0C20FFF77FBF00BF0D20FFF788
:100D28007BBF00BF0E20FFF777BF00BF0F20FFF784
:100D380073BF00BF1020FFF76FBF00BF1120FFF780
:100D48006BBF00BF1220FFF767BF00BF1320FFF77C
:100D580063BF00BF1420FFF75FBF00BF1520FFF778
:100D68005BBF00BF1620FFF757BF00BF1720FFF774
:100D780053BF00BF1820FFF74FBF00BF1920FFF770
:100D88004BBF00BF1A20FFF747BF00BF1B20FFF76C
:100D980043BF00BF1C20FFF73FBF00BF1D20FFF768
:100DA8003BBF00BF1E20FFF737BF00BF1F20FFF764
:100DB80033BF00BF2020FFF72FBF00BF2120FFF760
:100DC8002BBF00BF2220FFF727BF00BF2320FFF75C
:100DD80023BF00BF2420FFF71FBF00BF2520FFF758
:100DE8001BBF00BF2620FFF717BF00BF2720FFF754
:100DF80013BF00BF2820FFF70FBF00BF2920FFF750
:100E08000BBF00BF2A20FFF707BF00BF2B20FFF74B
:100E180003BF00BF2C20FFF7FFBE00BF2D20FFF748
:100E2800FBBE00BF2E20FFF7F7BE00BF2F20FFF745
:100E3800F3BE00BF3020FFF7EFBE00BF3120FFF741
:100E4800EBBE00BF3220FFF7E7BE00BF3320FFF73D
:100E5800E3BE00BF3420FFF7DFBE00BF3520FFF739
:100E6800DBBE00BF3620FFF7D7BE00BF3720FFF735
:100E7800D3BE00BF3820FFF7CFBE00BF3920FFF731
:100E8800CBBE00BF3A20FFF7C7BE00BF3B20FFF72D
:100E9800C3BE00BF3C20FFF7BFBE00BF3D20FFF729
:100EA800BBBE00BF3E20FFF7B7BE00BF3F20FFF725
:100EB800B3BE00BF4020FFF7AFBE00BF4120FFF721
:100EC800ABBE00BF4220FFF7A7BE00BF4320FFF71D
:100ED800A3BE00BF4420FFF79FBE00BF4520FFF719
:100EE8009BBE00BF4620FFF797BE00BF4720FFF715
:100EF80093BE00BF4820FFF78FBE00BF4920FFF711
:100F08008BBE00BF4A20FFF787BE00BF4B20FFF70C
:100F180083BE00BF4C20FFF77FBE00BF4D20FFF708
:100F28007BBE00BF4E20FFF777BE00BF4F20FFF704
:100F380073BE00BF5020FFF76FBE00BF5120FFF700
:100F48006BBE00BF1049114BD1F8882042F47002E3
:100F580010B4C1F888201A680D4C002042F0010234
:100F68001A6098601A6822F0847222F480321A603B
:100F78005C601A684FF0006422F480221A60D8601E
:100F88008C605DF8044B704700ED00E000380240CB
:100F980010300024154B164A70B41E881568012EAF
:100FA80005F1100320D0B41EA4B2A11C05EB011159
:100FB800002243F80C2C23F8082C43F8042C43F89F
:100FC800103C10338B42F4D1631C05EB0313094921
:100FD80000221A605A601A810D608E80DA60CA8019
:100FE8000A8170BC028070472B46F0E72073000826
:100FF80024730008C01800200023018143818381E5
:1010080003604360704700BFF0B44489F4B144689A
:10101800268965680E800AB1E1681160226842601D
:101028008AB14289013A42810D4A9688D18810686E
:101038002060013600270139284696801460D18047
:101048001F80F0BC704702604281EDE70C8002B15E
:10105800146046F2925200201A80F0BC704700BF1C
:10106800C0180020014B00221A60704708060020B3
:10107800084B186810B558B9044653F8040F2034C3
:10108800E4B20028F9D0FFF744F92044C0B210BDFB
:101098000024F8E70806002010B40849440900F0C5
:1010A8001F0051F82430C0F11F0001228240134371
:1010B80041F824305DF8044B704700BF0806002053
:1010C80010B40849440900F01F0051F82430C0F159
:1010D8001F000122824023EA020341F824305DF810
:1010E800044B7047080600202DE9F041204B1B787F
:1010F80063BB082925D8DFE801F005240524062468
:101108002424050070B315460C460646FFF7F6F88A
:10111800184F804602F0DCFC2246314638682B46E0
:1011280001F00EFF2C88B4B9386801F0E3FC02F036
:1011380025FD4046FFF7E6F801F0C2F92C80BDE82E
:10114800F08145F625631380BDE8F08146F66353C8
:101158001380BDE8F08102F011FD4046BDE8F04182
:10116800FFF7D0B847F27E231380BDE8F08100BFB7
:101178006C150020D417002000B583B002F018FCCD
:1011880000210DF10602094800F0E8FC084B196837
:101198000139196039B9074A074812681A600DF110
:1011A800060200F0DBFC03B05DF804FB101700201A
:1011B800DC1A0020CC1A0020001800202DE9F84382
:1011C8000446894690461D46FFF798F800270646CC
:1011D80002F07EFC104B2360C4F80490C4F8208011
:1011E800676204F1080001F011FB0C490C4A0B6816
:1011F8006761E261A36103B15C610A4A0C6013880C
:101208000133138002F0BAFC3046FFF77BF8002365
:101218002B80BDE8F88300BF464C4147F0190020F9
:10122800A4720008EC1900202DE9F04F0546944CF3
:101238000068A04289B007D0139A45F6C4531380BA
:10124800002009B0BDE8F08F9846C3F3002B129B2D
:101258000F46164613B1129A00231360FFF74EF893
:1012680008F00F09824602F033FCB9F1040F2CD0C4
:10127800B9F1080F1CD12B6A17EA030457D0BBF148
:10128800000F40F0BA807F4B1B68C3F88040129B68
:1012980013B1129A6B6A136002F070FC5046FFF7A4
:1012A80031F8139A00232046138009B0BDE8F08F67
:1012B80002F064FC5046FFF725F8139A45F62563BB
:1012C8000020138009B0BDE8F08F2B6A07EA0304F9
:1012D800BC4200F0968018F4004F40F0AF806A4B93
:1012E8001878002840F09580664C22683346D76706
:1012F800A2F88480C2F8800001222946684601F0DD
:1013080047FC02F03BFC5046FEF7FCFF01F0D8F822
:10131800FEF7F4FF804602F0DBFB226892F83530D6
:10132800032B00F28180DFE803F04D3E2F1F18F4F5
:10133800004F40F08E80544B187850B9514CD4F877
:1013480000E03346CEF87C70AEF88480CEF880009A
:10135800D2E702F013FC5046FEF7D4FF139A46F684
:101368006353204613806CE7129B13B1129A002333
:10137800136002F003FC4046FEF7C4FF139A47F2DD
:10138800D923138000205CE7129B13B1936C129A47
:10139800136002F0F3FB4046FEF7B4FF139A45F6DC
:1013A800C2531380EEE7129B13B1936C129A136029
:1013B80002F0E4FB4046FEF7A5FF139A46F2A91394
:1013C8001380DFE7129B13B11299936C0B60139B88
:1013D800D2F8804000271F80BBF1000F09D0B9F177
:1013E800040F02D0B9F1080F3ED12B6A23EA040397
:1013F8002B6202F0C3FB404651E723EA04032B6249
:1014080041E7BBF1000F3FF43EAF23EA07032B622D
:1014180039E702F0B3FB5046FEF774FF139A46F61D
:101428006353138000200CE702F0A8FB4046FEF748
:1014380069FF139A46F62E631380A3E702F09EFB1A
:101448005046FEF75FFF139A46F2B0131380002050
:10145800F7E602F093FB5046FEF754FF139A46F264
:10146800B01320461380ECE602F088FB4046FEF7F6
:1014780049FF139A45F6256338461380E1E600BF15
:10148800464C4147D41700206C1500200349044AF4
:1014980000230B6013800380704700BFF019002001
:1014A800EC19002038B50446002094F83650C4F8EA
:1014B8008010AB1EA26484F8350084F83400052B34
:1014C8000CD8DFE803F003030B0B1010032D12D028
:1014D800204601F05FFA002384F836302046BDE844
:1014E800384001F003BA042384F836302046BDE8BA
:1014F800384001F0FBB9204601F064FDE8E700BF81
:101508002DE9F04116460C4698460546FEF7F6FECC
:10151800074602F0DDFA012E13D05ED3B6F5004F70
:101528005BD048F201039E420BD002F027FB3846FD
:10153800FEF7E8FE069A45F6256313800020BDE80D
:10154800F081296AC5F8248021EA04012C8A2962DD
:10155800002C4AD0AC68A06870B1B0F884306468D8
:1015680003F00F03042B2DD0082B1FD1C36F296A5A
:1015780019402CD1002CEED102F000FB3846FEF7C2
:10158800C1FE330401D400F09BFFFEF7B7FE064608
:1015980002F09EFA2C6A02F0F1FA3046FEF7B2FE2B
:1015A800069A002320461380BDE8F08102F0E6FA8F
:1015B8003846FEF7A7FE069A43F6FF23138000205D
:1015C800BDE8F081C16F2B6A0B409942D2D14246E7
:1015D800FFF768FF002CBED1CEE7296AC5F8248042
:1015E8000C432C622C8A002CB4D102F0C7FA38467E
:1015F800FEF788FE069B286A1C80BDE8F08100BFC4
:10160800F0B50D4C0568A54283B005D045F6C45227
:1016180000201A8003B0F0BD1D4616460F4604464A
:10162800FFF7F2FA00950346394620463246FFF79F
:1016380067FF03B0F0BD00BF464C41472DE9F047B6
:101648008246894698461546002A78D000231360BA
:10165800FEF754FE4C4E074602F03AFA3368DC6C4B
:10166800DCB1013C9A6CDC642A60FFF7CDFA326881
:10167800936CD2F8A410C01A8842C2F8A00088BFA0
:10168800C2F8A40002F07AFA3846FEF73BFE0023BF
:10169800A8F800302046BDE8F08719F4004F68D15B
:1016A8003A4B1C78002C3DD1534607222146204650
:1016B80001F06EFA02F062FA3846FEF723FE00F0F7
:1016C800FFFEFEF71BFE074602F002FA33682E4EB5
:1016D80093F83520012A3FD010D3032A44D105B10D
:1016E8002C6047F2D922A8F80020DC6C02F046FAF8
:1016F8003846FEF707FE2046BDE8F08775B19B6CBB
:101708002B60FFF781FA33689A6CD3F8A410801A1B
:101718008842C3F8A00088BFC3F8A4000022A8F834
:101728000020E2E702F02AFA3846FEF7EBFD002433
:1017380046F66353A8F800302046BDE8F087FEF768
:10174800DDFD114E074602F0C3F93368DC6C002C4E
:10175800A3D0013CDC6488E70DB19A6C2A6046F29C
:10176800A912A8F80020C0E746F62E62A8F80020C3
:10177800BBE702F003FA3846FEF7C4FD46F2B013A1
:10178800A8F800300024B6E7D41700206C15002014
:101798002DE9F04383B007460E4615461C46FEF772
:1017A800ADFD814602F094F95FB33B6873B3B7F8B7
:1017B800443013F0010815D002F0E0F94846FEF76E
:1017C800A1FD7A6A1368FBB952F8041F0133002996
:1017D800FAD033603A6C0021D31A2B60218003B011
:1017E800BDE8F08302F0CAF94846FEF78BFD47F2E0
:1017F8005413C6F80080C5F80080238003B0BDE804
:10180800F083094B1F68D0E70023E2E7019302F059
:10181800B5F94846FEF776FD019B336047F2521250
:101828002B602280DBE700BFD417002010B40549E5
:10183800054C064A002323600B8013605DF8044BB7
:1018480003807047FE170020E4170020F8170020D7
:1018580038B5002504462A4B03620560856045605B
:10186800C560056145618561C56145628562C5627E
:101878000563A0F8465085648565A0F85C50294644
:101888006030FFF7B9FB25676567E567A4F8845002
:10189800C4F88050A567E564C4F8A050C4F8A45003
:1018A800256484F88650C4F8AC50C4F8A850A4F84D
:1018B800445025656565A4F88850A4F88A50C4F892
:1018C8008C50C4F89050FFF79FF920230D4A84F8F4
:1018D800345084F8355084F8365084F8373084F81A
:1018E8003830C4F89400C4F89850C4F8B050E56390
:1018F800C4F8B450C4F8B850C4F8BC2038BD00BF10
:10190800B0720008A47200082DE9F04F87B09DF866
:101918004060169CDDF84490129F139DBDF850A0BE
:1019280003941F2EBDF85C80DDF860C05FD0CDF851
:1019380010C00293934605910446FFF789FF08F00B
:101948000302DDF810C00023032AACF8003062D08F
:1019580009EB87078DE820013B4602994A4658461D
:1019680001F004FF029AE262059A22620023039AB8
:10197800A367514662602060256404F16000A76097
:10198800C4F828B084F8376084F83860C4F8249024
:10199800A4F844800293FFF72FFB204601F0D6FEFF
:1019A800FEF7ACFC054602F093F894F83700FFF711
:1019B80073FB204600F0D0FF1D49029BC4F8B430E9
:1019C8000B6893B3C4F8B830C3F8B440194A1A483E
:1019D800138800780C6001330128138011D002F0BD
:1019E800CDF8284607B0BDE8F04FFEF78BBC134C86
:1019F800A0429CD046F27323ACF8003007B0BDE893
:101A0800F08F02F0BBF82846FEF77CFC07B0BDE873
:101A1800F04F00F055BD002D9AD019464A460133C3
:101A2800AB4242F8041BFAD192E7C4F8B830CDE7CC
:101A3800E4170020FE1700207D150020CC18002098
:101A480010B5074B82B0186801F088FE054B1C687A
:101A5800204600210DF10602FFF746FBF8E700BF1C
:101A6800D4170020187300082DE9F04782B0044607
:101A7800884692461F46FEF741FC064602F028F8C3
:101A8800002C3ED04FF00009C4F848A0A7F80090F9
:101A980094F83610072919D801238B4013F0CC0588
:101AA80011D094F83430072B38D0E56C6B1C2BD050
:101AB8000135E56402F062F83046FEF723FC28465B
:101AC80002B0BDE8F08713F0330F0CD102F056F8DE
:101AD8003046FEF717FC46F62D633B800025284666
:101AE80002B0BDE8F087E36C5A1C2BD05D1CE5649E
:101AF80002F044F83046FEF705FC284602B0BDE87F
:101B0800F087154B1C68BDE702F038F83046FEF741
:101B1800F9FB46F6C5534D463B80E0E7484621466B
:101B28004A464B46CDF800A000F04CFFE56C02F0A9
:101B380025F83046FEF7E6FB18F4004FCFD100F049
:101B4800BFFCCCE702F01AF83046FEF7DBFB46F69E
:101B5800C5533B80C3E700BFD417002070B51446B7
:101B680006460D46FFF750F82946024623463046FA
:101B7800BDE87040FFF778BFF8B590F837700446B5
:101B88000D46012694F83630072B55D806FA03F38C
:101B980013F0CC0F15D113F0320F33D1DA074BD530
:101BA800204600F0A7FF284684F83750FFF774FA5C
:101BB800224B1B689C42204620D0BDE8F84000F02C
:101BC800CBBE94F8343084F83750013BDBB2052B98
:101BD80032D806FA03F313F0350F16D11B0719D5BF
:101BE800204600F067FE236BDB685C6ABD4294F810
:101BF80037301FD3BB420ED01F46C3E7BDE8F840BD
:101C080000F08CBE84F83750F8BD2046BDE8F84097
:101C180000F050BEF8BD204600F0C8FB94F83850DC
:101C280094F83730A84228BF2846C5B2AB4203D043
:101C38001F46A7E79D42DFD3F8BD00BFD417002099
:101C480070B52B4B2B4E19682B4D2C4B00221A804C
:101C58008AB0044632602A60294B29B3294A1B6896
:101C6800B3FBF1F31360284A284E294D1360294825
:101C780029490023224633602B6000F0D1F92388DC
:101C880083B9264A1268002A2ED0254925480968B2
:101C98000068814210D3244800781E2811D947F2E1
:101CA800463323800AB070BD20491B68154AA1FB42
:101CB8000313DB081360D6E747F2483323800AB0E2
:101CC80070BD1B4D00900192286803910B22029071
:101CD8000792049305930693089416481649174AE1
:101CE800FFF712FE0AB070BD47F247332380D9E7E9
:101CF80008730008C01A0020BC1A0020C81A002067
:101D080018730008CC1A0020DC1A0020D017002015
:101D1800E817002098190020C0720008FC7200081B
:101D280014730008407300083C730008CDCCCCCC79
:101D38000C73000800180020D07200088D1D0008E0
:101D48000E4B1A68824210B411D0426903691361BC
:101D580003B15A610A490B8801240022013B80F82B
:101D680026400B80026142615DF8044B70470269AE
:101D78001A60002AEED000235361EBE7BC1A00205A
:101D8800C81A00202DE9F04FDFF8A880DFF8A8B0C6
:101D9800DFF89CA087B00DF10E090326002001464C
:101DA80004AA03ABFFF74AFC002105AB0A461F480B
:101DB800CDF8009000F06AF9FEF726FFD8F8003059
:101DC800DBF8004001330746C8F8003064B91DE06D
:101DD800236AA361A36820460BB1E168984703A86A
:101DE80000F0D2FB2C468DB103A800F0A7FBA36935
:101DF8002569013BA361002BF1D1A38C022BE7D00D
:101E08002046FFF79DFF84F82660E3E7FEF7FCFE17
:101E1800DAF80030064AC01B984200D9106003481F
:101E2800002105AA00F008FAB8E700BF98190020B9
:101E3800E8170020D0170020BC1A00202DE9F04137
:101E48000446174688461D46FEF758FA064601F02E
:101E58003FFE124B2360394604F12000C4F8048089
:101E6800FFF7CAF804F1080000F0D0FC0C490D4A4D
:101E78000B68E26100226261A36103B15C610A4AF6
:101E88000C6013880133138001F078FE3046FEF7AA
:101E980039FA00232B80BDE8F08100BF5155455524
:101EA8008C190020A4720008D81700202DE9F04FE3
:101EB800524C056889B0A542129EDDF84C803AD193
:101EC8000EB1002434601F4691468A460546FEF747
:101ED80015FA834601F0FCFD434605F1200039461A
:101EE8003246FFF791F8B8F800300446002B5DD071
:101EF80019F4004F76D1424B1B78002B67D1294645
:101F080053460522684600F043FE01F037FE584666
:101F1800FEF7F8F900F0D4FAFEF7F0F9054601F0FB
:101F2800D7FD384B1A6892F83530032B47D8DFE8CD
:101F380003F01C27320A45F6C453A8F800300020E5
:101F480009B0BDE8F08F00233B8006B1336047F24B
:101F5800D923A8F80030002401F010FE2846FEF727
:101F6800D1F9204609B0BDE8F08FB2F85C30946D25
:101F78003B800EB1936C33600023A8F80030EBE788
:101F880000233B800EB1936C336046F2A913A8F886
:101F980000300024E0E700233B800EB1936C3360EF
:101FA80045F6C253A8F800300024D5E701F0E6FD55
:101FB8005846FEF7A7F9204609B0BDE8F08F002083
:101FC80046F62E6338800446A8F80030C4E701F0CE
:101FD800D5FD5846FEF796F946F66353A8F8003043
:101FE8000020ADE701F0CAFD5846FEF78BF946F22E
:101FF800B013A8F800300020A2E700BF515545559E
:102008006C150020D41700200349044A00230B60F4
:1020180013800380704700BF8C190020D817002058
:102028002DE9F041044688461646FEF767F907464B
:1020380001F04EFD114B002584E808012562656218
:1020480084F82850E56204F1080000F0DFFB0C4931
:102058000C4A0B686561E261A36103B15C610A4ADD
:102068000C6013880133138001F088FD3846FEF7B1
:1020780049F900233380BDE8F08100BF4D5554581D
:10208800D01A0020A4720008F81900202DE9F043A6
:10209800664C0568A54289B006D0109A45F6C45327
:1020A800138009B0BDE8F0831F4616460D46044666
:1020B800002B73D000233B60FEF720F9804601F027
:1020C80007FD94F828307BB3DFF86891606AD9F887
:1020D800002090427FD0330400F18F80544B1B784E
:1020E800002B6BD192F8371090F837308B426FD8AD
:1020F80021462B460422684600F04AFD01F03EFDC9
:102108004046FEF7FFF800F0DBF9FEF7F7F8044663
:1021180001F0DEFCD9F8002092F83530032B76D890
:10212800DFE803F0352D2518424BE26A1B6863622D
:10213800012184F828103A60DA6B2262DC6301F02E
:102148001DFD4046FEF7DEF8109A0023138009B003
:10215800BDE8F0830FB100233B60109A47F2D92302
:10216800138001F00BFD2046FEF7CCF899E70FB17C
:10217800936C3B60109A45F6C2531380F1E70FB198
:10218800936C3B60109A46F2A9131380E9E70FB1EC
:10219800936C3B60109A00231380E2E7FEF7AEF8D9
:1021A800804601F095FC94F82830002B8CD1214B07
:1021B80001221B68636284F82820BDE701F0DEFC79
:1021C8004046FEF79FF8109A46F66353138068E777
:1021D800FFF7D2FC8CE7FF2B1ED0013384F82830A0
:1021E8000FB1E36A3B6001F0C9FC4046FEF78AF88C
:1021F800109A45F28273138053E701F0BFFC404602
:10220800FEF780F8109A46F2B013138049E7109A47
:1022180046F62E631380A4E701F0B0FC4046FEF7B3
:1022280071F8109A45F2847313803AE74D55545863
:102238006C150020D41700202DE9F047524B046894
:102248009C4282B005D045F6C453138002B0BDE865
:10225800F08715460E460446FEF750F8DFF8309131
:10226800074601F035FCD9F80030626A9A420AD074
:1022780001F084FC3846FEF745F845F281732B805F
:1022880002B0BDE8F087FEF7BFFC94F82830E062A2
:10229800013BDBB2804684F82830002B4AD1D9F8BC
:1022A8000030DA6B944201D16AE01A46136A9C4204
:1022B800FBD12032B4F810A01B6A1360BAF1000FEA
:1022C80041D0D9F8000090F837C090F838E0F445CC
:1022D80013D0C36B1F2153B19A682AB1926892F840
:1022E8003720914228BF11461B6A002BF4D1714553
:1022F80028BF71468C458A4631D3A36801229B6862
:1023080084F82820D96B2162002263621946DC63B5
:1023180020461346CDF8008000F054FB01F02EFC57
:102328003846FDF7EFFF330401D400F0C9F8002365
:102338002B808BE701F022FC3846FDF7E3FF45F2DE
:1023480083732B8082E7C4F824A084F828A001F0C6
:1023580015FC3846FDF7D6FFA5F800A076E700F093
:10236800C9FBD9F80030504683F837A0FEF794FE31
:10237800D9F8000000F0F0FA044B83F800A0BCE79D
:1023880003F13C02234695E74D5554580C1700209D
:10239800D41700200349044A00230B6013800380EC
:1023A800704700BFD01A0020F8190020C36B1F2007
:1023B8005BB19A682AB1926892F83720904228BF98
:1023C80010461B6A002BF4D170477047704700BF56
:1023D8000349044A00230B6013800380704700BF41
:1023E80094190020F619002070B50A4D0A4CFDF723
:1023F80085FF064601F06CFB2A6823680132013329
:102408002A60236001F0BAFB3046FDF77BFF01F03C
:102418007BF9ECE7E019002078150020054B1B78C4
:10242800012B05D1044A1378F92B9CBF0133137093
:10243800704700BF7D150020FC17002038B5184BE9
:102448001B78012B00D038BDFDF758FF154A1378CB
:1024580004460BB3013BDBB21370EBB9124B1B788C
:10246800D3B9FEF705FE114B114A124D12682870B8
:1024780000EB400153F821300F4993420B600AD01A
:102488000E48D3F88C10026801310132C3F88C1061
:102498000260FDF7FBFE2046BDE83840FDF732BF7D
:1024A8007D150020FC1700206C15002080150020E9
:1024B800D417002000170020E0170020F81700208C
:1024C80038B5174B1B7813B9164B1B7803B138BDB9
:1024D800FDF714FF0446FEF7CBFD134B134A144DCA
:1024E8001268287000EB400153F8213011499342DB
:1024F8000B6010D01048D3F88C10026801310132FB
:10250800C3F88C100260FDF7BDFE2046FDF7FAFE09
:10251800BFF36F8F38BD2046BDE83840FDF7F2BEE7
:10252800FC1700206C15002080150020D41700200F
:1025380000170020E0170020F8170020104B1B7828
:10254800012B03D045F689630380704770B50D4DA4
:102558002B78F92B03D945F20923038070BD044673
:10256800FDF7CCFE064601F0B3FA2B7801332B7049
:1025780001F004FB3046FDF7C5FE0023238070BD43
:102588007D1500206C150020F8B5164B1B78012B23
:1025980003D045F689630380F8BD134E33781BB921
:1025A80046F664530380F8BD0446FDF7A7FE0746C8
:1025B80001F08EFA3578013DEDB2357045B901F07C
:1025C800DDFA3846FDF79EFEFFF77AFF2580F8BD55
:1025D80001F0D4FA3846FDF795FE46F6635323809A
:1025E800F8BD00BF7D1500206C150020F8B50F4D13
:1025F8002B781BB145F68A630380F8BD0446FEF7C5
:1026080037FD0B4A0B4B0C490C4F0D4E107000EB6D
:10261800400E012253F82E3033600B6038702A7058
:10262800FDF7F2FD43F699232380F8BD7D150020C0
:102638000017002080150020D41700200C17002058
:10264800E0170020F0B50E490E4A0F4B0F681668C8
:102658001B680E4D8BB000241F210B22089003939A
:1026680000910792019702960494059406942346D4
:1026780007480849084A2C60FFF746F90BB0F0BD37
:1026880028730008F47200081C730008E019002081
:10269800CC18002050730008F12300082DE9F04100
:1026A800054601F039F8464BDFF84C81DFF84CC19C
:1026B800DFF84CE1434F444E444C454845491B68BC
:1026C800002288F800208CF800208EF800203A605C
:1026D8003260227002700A7033B13F49096819B13B
:1026E800013B41F8042BFBD13C493D4A3D4BDFF807
:1026F80014C1DFF814E13C483C4F3D4E00240C6007
:1027080014601C70CCF80040CEF800403C60346087
:102718000460FEF7A7FC374B224603F5C0711A8008
:1027280043F8082C43F8042C0C338B42F7D1284685
:10273800FEF7ACFE2B880BB1BDE8F0812846FFF709
:1027480047FE2B88002BF7D12846FEF723FC2B8861
:10275800002BF1D12846FFF71DFE2B88002BEBD16B
:102768002846FFF751FC2B88002BE5D1284600F0BE
:1027780055FF2B88002BDFD12846FFF757F82B8809
:10278800002BD9D12846FFF75DFF2B88002BD3D12A
:10279800284600F049FB2B88002BCDD1284600F0B5
:1027A80007FE2B88002BC7D12846FFF749FA2B884C
:1027B800002BC1D100F03CFABDE8F041FFF706BE9E
:1027C80004730008D4170020E01700200C1700201D
:1027D80000170020DC17002010730008D41900200F
:1027E800F01700207C150020E81900207015002043
:1027F800C819002088150020FC1700207D1500202E
:102808006C15002008170020EC1700200023036037
:1028180043600381704700BF10B48B68028993F846
:102828003740A2B103680132028113B918E05B682E
:10283800B3B19A6892F83720A242F8D91A68C2B19F
:1028480081E80C00516019605DF8044B7047012362
:1028580003815DF8044B4A600A600160416070477B
:1028680043680B6000224A605DF8044B5960416080
:102878007047196081E80C000160E5E70389012BC6
:1028880010B40DD091E8140072B154607CB122608C
:102898000022013B03815DF8044B4A600A607047DF
:1028A800002202604260F3E722600460F0E74260C1
:1028B800EEE700BFB0F8463070B5046BABB15E1EF2
:1028C800B6B2013604EB4616E068038A00F1080543
:1028D800012B2146284605D9FFF7D0FF2846214677
:1028E800FFF79AFF2034B442EED170BDB0F84630FD
:1028F80070B50646046B63B15D1EADB2013504EBDD
:102908004515E068214608302034FFF7B7FFAC4290
:10291800F7D10023A6F84630336370BD90F83730FE
:102928000C4903EB43039B0070B4CC1822894AB1CD
:10293800CD58002601322281C56006612861C85041
:1029480070BC704701252581C26002616060C85073
:1029580070BC70478015002090F8373030B403EB16
:1029680043030B4C9B00E218118949B153680024BA
:1029780001311181C460036130BCD8605060704778
:1029880001251581C1600161E050506030BC70477D
:102998008015002010B5044690F83700FEF77CFB40
:1029A800074B94F837201B789A42204603D0BDE89D
:1029B8001040FFF7B3BFBDE81040FFF7CDBF00BF21
:1029C8000C17002070B50C4691F8361002390546F0
:1029D800052923D8DFE801F023232222030394F8F2
:1029E8003410032944D0A4F85C30049BA265A36486
:1029F80045B12046FFF77AFFAB683D4AC4F8BC20D2
:102A080093BBEA6194F83630072B61D00023042287
:102A180084F8362084F8353084F8343070BD94F862
:102A28003410032939D0A4F85C30049BA265A36450
:102A38005DB12046FFF75AFFAB682D4AC4F8BC20A9
:102A4800002B43D09B681B6AEB6194F83630032B4C
:102A580038D02046FFF79EFF002384F8363084F8EC
:102A6800353084F8343070BD9B681B6AEB61C9E768
:102A7800B4F84600216B0028BAD0CE68B5422BD0F6
:102A8800461EB6B2013601EB461602E0C86885421A
:102A980022D02031B142F9D1AAE7B4F84600216B1F
:102AA8000028C5D0CE68B5421CD0461EB6B2013645
:102AB80001EB461602E0C868854213D02031B142C6
:102AC800F9D1B5E7204600F07DFAC2E7EA61BCE734
:102AD800204600F077FA99E70B83049B0D614A6161
:102AE800CB6185E70B83049B0D614A61CB619FE74E
:102AF800A472000870B50169044690F83700E268CE
:102B080071B1154B00EB400003EB80000389013BDA
:102B18000381CA609AB1116100232361E36070BD2B
:102B28007AB10D4D00EB400080002E183389013B2F
:102B38003381002311612A502361E36070BD416035
:102B4800EAE7054D00EB40039B00E918EA500A81CB
:102B58004A60FEF7B5FADFE78015002010B5044695
:102B680039B9022380F836302046BDE81040FFF717
:102B7800C1BF0A460548214600F0AAF9032384F894
:102B880036302046BDE81040FFF7B4BFE01A0020F9
:102B98002DE9F041DFF89480D8F80070002504464C
:102BA8000E4687F83420194687F835503846FFF71F
:102BB800D5FFD8F80030DEB10122E6602146A3F83F
:102BC80046201C6306F10800A36065602560256146
:102BD80065612583E561FFF71FFEB368D8F800201B
:102BE8009B6871681B6AC2F8BC10F361BDE8F0818C
:102BF80093F83420A3F84660022A1E6306D0072AF9
:102C080009D1074AC3F8BC20BDE8F081054AC3F8DA
:102C1800BC20BDE8F081044AC3F8BC20BDE8F081BF
:102C28006C73000864730008A4720008D4170020AD
:102C3800704700BF2DE9F04FDFF8E091DFF8E4813D
:102C480087B04E46454600200DF116030146024660
:102C5800FEF7F4FCBDF81630002BF4D1FDF74EFB5F
:102C6800044600F035FF6C4B6B4A1B680133136058
:102C780000F084FF2046FDF745FBFDF73FFB834648
:102C880000F026FFFDF7C0FFD9F800400290002CA5
:102C980000F0C080276D013F2765002F40F0BA8003
:102CA80039464FF0040A0DE0052B08BF84F836A01A
:102CB8006469C9F80040BCB1B388226DA161013BC9
:102CC800B3809AB994F836300137012BBFB2EBD1F3
:102CD80084F8361020460191FFF75CFE646901997B
:102CE800C9F80040002CE7D14C4B9C80A9F806702D
:102CF800FDF78AFF029BC31A029300F03FFF584674
:102D0800FDF700FBFDF7FAFA019000F0E1FEFDF790
:102D18007BFFD8F800700390002F4AD03C6D013C2F
:102D28003C65002C45D1A34622E0072B04BF0423B1
:102D380087F83630032387F834B087F83530BAF18E
:102D4800000F09D09AF837309AF838209A4203D001
:102D580097F837209A4245D07F69C8F80070002F4D
:102D680055D0AB883A6DC7F818B0013BAB800ABBA9
:102D780097F83430042B02BF3B6BDB68D3F824A0F0
:102D8800C7F858B0A7F85CB018BF4FF0000AFDF7B5
:102D98003BFFB8643846FFF7A9FD97F83630013491
:102DA800032BA4B2C1D13846FFF7F4FD87F836B03B
:102DB800C0E70024A8F80640FDF726FF044600F007
:102DC800DDFE0198FDF79EFA029B039AC2EB030A07
:102DD800134B1B680AEB040098427FF634AF104B84
:102DE800186030E75046FFF7E1FA9AF838109AF879
:102DF8003730884228BF0846C1B28B42ACD0504613
:102E0800FEF7BAFE7F69C8F80070002FA9D1054BFC
:102E18009F80CFE7002769E7D0190020D41A002047
:102E2800C41A0020E01A002030B51E4B1E491F4A64
:102E38001F4D1C6800238BB02B600B608B80CB80F0
:102E480013609380D380002C26D01A4A1A4912683E
:102E580009688A421BD3194909781E2904D947F2FF
:102E6800112303800BB030BD154D00912D680392DE
:102E78000B210890079101940493059306930295FA
:102E880010481149114AFEF73FFD0BB030BD47F21B
:102E9800132303800BB030BD47F2122303800BB01D
:102EA80030BD00BFF8720008D41A0020E01A0020D4
:102EB800D0190020307300084073000848730008D8
:102EC8000073000810170020787300083D2C0008D4
:102ED800036870B40BB921E02B461C6D94420DD2E7
:102EE8005D69121B002DF7D184880A65621C8B610D
:102EF8004D61C8615961828070BC70479C690A65E0
:102F08001E6D85888C61B21A8CB101354B61C86120
:102F180099611A656161858070BC704701240A65F2
:102F28004B618B61C8618480016070BC70476C1C08
:102F38004B61C86199611A6501608480DCE700BF54
:102F4800042A70B51C460DD0082A18D089B101236F
:102F580080F836300A4601461848FFF7B9FF0023C3
:102F6800238070BD164B1B68C91A4B1E13F1011F35
:102F7800EDD9002247F27E230265238070BD104BF5
:102F8800456D1B685A1B914209D3EB1A0B445E1E10
:102F980016F1011F06D8294441651946D7E70B44A5
:102FA8004365D4E7B2FBF1F202FB01110D440022A4
:102FB80047F27E2345650265238070BDD41A002040
:102FC800D01900208269C169436970B482B1536124
:102FD80023B1046D1D6D9A612A191A658A88002328
:102FE800013A83618A8043610365C36170BC70479D
:102FF8006BB11E6D8C88056D9A613544013C1D6569
:103008008C800B6070BC42610265C26170470B60C6
:103018008B800365C361E9E7F8B50746FDF76EF9EC
:10302800324E044600F054FDDFF8DCE03049314A06
:10303800314B32480025AEF800500D6015601D81F7
:103048003560056000F09AFD2046FDF75BF9FDF755
:1030580055F9064600F03CFD294B1C6800F08EFD32
:103068003046FDF74FF914B3FDF748F9064600F06E
:103078002FFDC4F8B0506567C4F8A450C4F88C504C
:10308800A4F88850A4F88A50C4F89850C4F89C5002
:10309800FDF7BAFDA4F86C50C4F89400D4F8B84011
:1030A80000F06CFD3046FDF72DF9002CDCD1FDF762
:1030B80025F9054600F00CFD124B1C6800F05EFD7A
:1030C8002846FDF71FF900266CB1FDF717F90546EC
:1030D80000F0FEFCA685A46900F050FD2846FDF727
:1030E80011F9002CF1D100233B80F8BD74150020A4
:1030F800E8170020DC190020C0180020C41A00209E
:10310800E41700208C190020DA1700202DE9F04F71
:10311800964D2B78012B85B0954B0CD01C680DF182
:103128000E066700384600213246FDF7DDFF2B7892
:10313800012BF7D102E01C680DF10E063046FFF7AF
:103148006BFF8C4B1B68A34203D9B3FBF4F20192CB
:1031580022B9894AA2FB0323DB080193DFF848B2AE
:10316800DFF848A2FDF750FD009000F09FFC834B6C
:103178001860FDF7C3F80024054600F0A9FCDAF84A
:103188000030CBF80030CAF8004000F0F7FC2846C1
:10319800FDF7B8F87A4B1A68DBF800309A4240F22B
:1031A800C68078498A4240F2C58077498A4240F20F
:1031B800CF8076498A4240F2D38075498A4298BFC7
:1031C8000A2042F210718CBF01204FF47A71B2FBD1
:1031D800F1F203FB00F3B3FBF2F36E4A6E48128878
:1031E8006C49C3F51C5310339BB29A42038000D23A
:1031F8000B8000F0A3FAFDF781F8054600F068FCA3
:10320800664B1C6800F0BAFC2846FDF77BF8002CDA
:1032180000F08A8000252F46FDF770F8804600F000
:1032280057FCD4F89830C4F89C30C4F8987000F073
:10323800A5FC4046FDF766F8D4F89C301D44FDF720
:103248005DF8804600F044FCD4F8B84000F096FCE5
:103258004046FDF757F8002CDED1002D64D0494BCD
:103268009D426BD9484B9D4276D9484B9D427AD9AD
:10327800474B9D4298BF0A2742F210738CBF012723
:103288004FF47A73B5FBF3F5FDF738F8044600F010
:103298001FFC424BD3F8009000F070FC2046FDF76D
:1032A80031F842F21078B9F1000F28D0D9F89C40D3
:1032B800B9F88AE004FB07F4B4FBF5F4A4B244457A
:1032C80028BF4446A64538BFA9F88A4009F1AC0191
:1032D80009F1A80233464846A9F88840FEF758FA8B
:1032E800FDF70CF8044600F0F3FBD9F8B89000F0AD
:1032F80045FC2046FDF706F8B9F1000FD6D1284B5A
:10330800274A1B78012B1DD0FDF77EFC254B009921
:103318001B68244A401A984288BF1060002101980F
:103328003246FDF7E1FE1DE701250027ACE71A4B01
:103338001C805EE7012142F2107048E742F21077E4
:1033480001239FE7002330461370FFF765FEDBE794
:103358000A214FF47A703AE74FF47A770A2391E713
:103368006421084633E764273B468BE701170020B2
:103378003873000818730008CDCCCCCCDC190020B9
:10338800CC1900207F1A0600FF083D00FF59620291
:10339800FF83D717DA170020F4170020E41700205E
:1033A800F419002074150020E41900207815002075
:1033B800F0B51E4B1E4F1A681E4E1F4D1F4C20495C
:1033C80000238BB03B6033602B6023700B70002AA6
:1033D80026D01C491C4C09682468A1421BD31B4CED
:1033E80024781E2C04D946F62A6303800BB0F0BD5E
:1033F800174D009401922C680391032208900792BC
:10340800049305930693029412481349134AFEF74E
:103418007BFA0BB0F0BD46F62C6303800BB0F0BD11
:1034280046F62B6303800BB0F0BD00BF3473000871
:1034380078150020E4190020CC190020011700207D
:10344800F41900204C730008407300082C7300081E
:1034580044730008FC1900208C730008153100081B
:103468002DE9F8430446884691461D46FCF746FF79
:10347800064600F02DFB104BC4F82090002784E886
:103488000801676204F10800FFF7C0F90B490C4A0C
:103498000B686761E261A36103B15C61094A0C6072
:1034A80013880133138000F069FB3046FCF72AFFCC
:1034B80000232B80BDE8F88353454D4104170020B5
:1034C800A4720008901900202DE9F041504C0568BD
:1034D800A54288B007D00E9A45F6C4531380002041
:1034E80008B0BDE8F0811F4616460D460446002B7D
:1034F80035D000233B60FCF701FF804600F0E8FA76
:10350800236A002B36D1330476D4424B1B78DBB9BF
:103518002B46062221466846FFF73AFB00F02EFBB1
:103528004046FCF7EFFEFEF7CBFFFCF7E7FE05464B
:1035380000F0CEFA384B1A6892F83530032B50D881
:10354800DFE803F04838294000F018FB4046FCF754
:10355800D9FE0E9A46F6635313800020C0E7FCF7A5
:10356800CDFE804600F0B4FA236A002BCBD0013B95
:10357800236203E0013B626A23623A60246A00F036
:10358800FDFA4046FCF7BEFE0E9A00232046138043
:1035980008B0BDE8F0810FB1936C3B600E9A45F618
:1035A800C2531380246A00F0E9FA2846FCF7AAFE01
:1035B800204695E70FB1936C3B600E9A46F2A9132B
:1035C8001380EFE70FB100233B600E9A47F2D9232F
:1035D8001380E7E70FB1936C3B600E9A00231380CA
:1035E800E0E70E9A46F62E63138000F0C7FA2846E5
:1035F800FCF788FE002073E700F0C0FA4046FCF7AD
:1036080081FE0E9A46F2B0131380002068E700BFCF
:1036180053454D416C150020D41700200349044A36
:1036280000230B6013800380704700BF041700203D
:10363800901900202DE9F04782B0064688461746C3
:103648009946FCF75BFE824600F042FA348A84B958
:10365800356A6B1C30D001353562776200F08EFA1E
:103668005046FCF74FFE2846A9F8004002B0BDE8D6
:10367800F08718F4007FB56808BF01240022013CD8
:10368800A9686D68009713463046A4B2FFF79AF907
:10369800002CF3D1356A00F071FA5046FCF732FE7F
:1036A80018F4004F01D1FEF70BFF00232846A9F8B4
:1036B800003002B0BDE8F08700F060FA5046FCF731
:1036C80021FE254646F6C5532846A9F8003002B023
:1036D800BDE8F08770B50B4B04689C4204D045F6F2
:1036E800C4531380002070BD15460E460446FDF7EE
:1036F8008BFA314602462B462046BDE87040FFF75C
:1037080099BF00BF53454D41024B1B6803B1184791
:10371800704700BFC8190020054A064B11681B688E
:10372800054A03EB810323F007031360704700BFCA
:103738000473000810730008E81A0020024B1B6885
:1037480003B11847704700BFE8190020024B1B68F7
:1037580003B11847704700BF08170020024B1B68C9
:1037680003B11847704700BF701500202DE9F04FCE
:10377800099CBDF82850DFF8A48102EB840222F0EE
:1037880007024FF0807B42F81C3C4FF006334FF0A5
:10379800123A4FF003394FF0023C4FF0113E4FF010
:1037A80010374FF009364FF0083442F8080C42F849
:1037B800201C4FF007304FF0053142F804BC42F8A6
:1037C800383C4FF0043B6B0742F80C8C42F810ACC5
:1037D80042F8149C42F818CC42F824EC42F8287CB1
:1037E80042F82C6C42F8304C42F8340C42F83C1C3D
:1037F80042F840BC7FD54FF00077414E414D4248DA
:103808004249434B434CDFF818B1DFF818A1DFF801
:103818001891DFF81881DFF818E142F8447C3E4F30
:10382800DFF810C142F8486C42F84C5CA6F5D006A7
:10383800A5F5D00542F8504C42F8540C4FF083449B
:10384800A0F5E00042F8581C42F85C3CA1F5F001F4
:10385800A3F5000342F860BC42F864ACABF5080B72
:10386800AAF5100A42F8689C42F86C8CA9F5180968
:10387800A8F5200842F870CC42F874EC4FF0824C5E
:10388800AEF5400E42F8787C42F87C6CA7F55807F4
:10389800A6F5700642F8805C42F8844C4FF08145EA
:1038A800A4F1A07442F8880C42F88C1C4FF08040B8
:1038B8004FF07E5142F8903C002342F8BC0C42F88D
:1038C80094BC42F898AC42F89C9C42F8A08C42F810
:1038D800A4CC42F8A8EC42F8AC7C42F8B06C42F8B0
:1038E800B45C42F8B84C42F8C01C42F8C43CA2F19F
:1038F800C400BDE8F08FA2F14000BDE8F08F00BF22
:103908000000F8410000F0410000E0410000D8410B
:103918000000D0410000E84100009841491A000821
:103928000000C8410000C0410000B8410000B0419B
:103938000000A0410000A84138B51A4C2368B3F82C
:103948004420510725D4184D2B68B3F8442052075A
:1039580023D4164B1B6803B19847FDF755F92D681A
:103968002368AB4209D0D3F89420D3F89810821A70
:103978001144C3F89020C3F89810C5F8940000F0DB
:1039880085F82368D3F8B020904288BFC3F8B00008
:1039980038BD1868FCF722FCD5E71868FCF72BFC43
:1039A800D7E700BFD4170020E0170020D419002063
:1039B800024B1B6803B11847704700BFF01700207F
:1039C80010B5FCF79BFC044600F082F8074A137810
:1039D8000133137000F0D2F82046FCF793FCFDF792
:1039E800CBFBBDE81040FEF729BD00BFFC17002047
:1039F800084A0949094B013810600A6822F07F42D9
:103A08000A601A6842F005021A601A6842F0020257
:103A18001A60704714E000E020ED00E010E000E0DC
:103A280010B5FDF7F1F8084A084B1168084C1A68F8
:103A38002060401A904288BF1860064B1A6890426E
:103A480088BF186010BD00BFF41A0020001B0020BA
:103A5800FC1A0020EC1A0020FEE700BF014B18609A
:103A6800704700BFF01A002010B5FCF747FC054B63
:103A78001C68FCF747FC044B186884428CBF201A6A
:103A8800002010BD001B0020081B002010B5FFF708
:103A9800EBFF0446FCF732FC034B00221A60FCF7EC
:103AA80031FC204610BD00BF001B002010B5FCF7FC
:103AB80025FC054B1C68FCF725FC044B1868844260
:103AC8008CBF201A002010BDEC1A0020081B002013
:103AD800074910B5074C0A88238801320A8023B9A0
:103AE800FDF792F8044A238810600133238010BD43
:103AF800041B0020F81A0020F41A00202DE9F843CE
:103B0800164B174E174D184FDFF86C8000241C60B9
:103B1800FDF760F8154B1649164A1C600C801460B6
:103B280034802C603C60C8F80040FCF7E7FB2C6050
:103B38008146FFF7CDFF3388013B9BB2338053B1F9
:103B48002B68C8F80030002348462B603B60BDE86E
:103B5800F843FCF7D7BBFFF763FFF1E7F01A002043
:103B6800F81A0020001B0020EC1A0020FC1A002084
:103B7800041B0020F41A0020081B0020044A1388A4
:103B8800013B9BB2138003B17047FFF749BF00BFE9
:103B9800F81A00202DE9F047099C994615468046F9
:103BA8008A46FCF7ABFB0746FFF792FF4D452A46CE
:103BB800D8F80830D8F8046038BF4A46501E13EACF
:103BC8000005C2F1000018BF15461840284400EB54
:103BD8000A0109F1FF320A40C9F1000518BF4A4637
:103BE80029400A440136D11AF61A8E420DD342F200
:103BF8001073C8F8082023800446FFF7BFFF384633
:103C0800FCF780FB2046BDE8F087089B0BB18E1BB4
:103C18001E6042F2D9732380FFF7B0FF00243846B4
:103C2800FCF770FB2046BDE8F08700BF30B441EADE
:103C3800012541EA052510F0030341EA05250CD0CA
:103C48004AB1C3F10403034401E098421ED0013A8B
:103C580000F8011BF9D130BC7047032A0DD904467E
:103C68001346043B032B44F8045BFAD8131F23F0D4
:103C780003030433184402F00302002AEBD0024481
:103C880000F8011B9042FBD130BC7047032AE6D8EC
:103C9800F5E700BF2DE9F042069F0C4616461D4683
:103CA800FCF72CFB8146FFF713FF0A4B2660013D0A
:103CB8001A68E26035446560A66027611C60FFF7FA
:103CC8005DFF4846FCF71EFB079A42F2107313800B
:103CD800BDE8F082201B002070B584B00DF10E0302
:103CE8000B4C0C4A019301264FF480330A480B49C8
:103CF800009600252560FFF7CDFFBDF80E2042F2A3
:103D080010739A4201D0FFF7A7FE04B070BD00BF40
:103D1800201B0020241B0020A87300080C1B002077
:103D280000B583B0074801930023994218BF08469D
:103D38000093114601230422FFF72CFF03B05DF81E
:103D480004FB00BF0C1B002038B50546FCF7D6FA6B
:103D58000446FFF7BDFE044B1D60FFF70FFF20462A
:103D6800BDE83840FCF7CEBA241B01200120FFF73C
:103D7800EBBF00BF78B103788BB171B10346014442
:103D8800002004E013F8012F2AB18B4204D05A1CFA
:103D980000F10100F6D1704770470846FBE7184666
:103DA800704700BF704700BF002851D02DE9F0418F
:103DB80090F8513082B0804603F0FF02002B42D0C9
:103DC800D8F82830D8F804700193D8F80830D8F813
:103DD8000C60D8F81050D8F81440D8F81C10D8F84F
:103DE8002020D8F80000D8F818E0D8F82CC01F43D5
:103DF8003E4335432C430C430225019B88F8515020
:103E0800144301684FEA1E422343D8F824400EF4B5
:103E1800007E02F0040243EA0E03224321F040012F
:103E2800016003604260C0F810C0C369002223F437
:103E38000063C36101211046C8F8542088F8511066
:103E480002B0BDE8F08180F85020FFF7ABFFB7E77C
:103E58000120704708B5094B1A6842F400721A60CD
:103E68001A6842F480621A60032000F01DF80F20DF
:103E7800FCF7A2FE00F00AFD002008BD003C02404D
:103E8800024A136801331360704700BFD40400204E
:103E9800014B1868704700BFD4040020014B186814
:103EA800000C7047002004E0074AD1684FF6FF0372
:103EB8000B4043F0BF6300F0070043F4003343EACC
:103EC8000023D360704700BF00ED00E0184BDB68AB
:103ED800C3F3022330B4C3F10705042D03F104042E
:103EE80028BF0425062C17D9033B01249C40013C1C
:103EF80022400124AC40013C21409940002842EA7C
:103F080001020CDB00F1604000F561401201D2B201
:103F180080F8002330BC704700221346E9E7054BC0
:103F280000F00F0012010344D2B21A7630BC704779
:103F380000ED00E0FCEC00E000F01F010123400967
:103F4800024A8B4042F82030704700BF00E100E091
:103F58002DE9F04F85B00F68DFF848E2DFF848C276
:103F6800894E0197002303E00133102B00F0A58050
:103F78000122019C9A4014409442F5D14D6825F0E5
:103F8800100ABAF1020F00F09B804FEA430903229E
:103F9800D0F800B002FA09F2D24305F0030802EAA9
:103FA8000B0B08FA09F80AF1FF3A4BEA0808BAF1CC
:103FB800010FC0F8008040F2AC80D0F80C808F6808
:103FC80002EA080207FA09F842EA0802C260EA00AF
:103FD800CAD54FF0000ACDF80CA0DEF8442042F410
:103FE8008042CEF84420DEF8448023F0030202F138
:103FF800804208F4804802F59C32CDF80C8003F02A
:104008000308DDF80C90D2F808B04FEA88084FF0A2
:104018000F0909FA08F960452BEA090926D05B4F10
:10402800B84200F08E805A4FB84200F08F80594F46
:10403800B84200F09080584FB84200F09180574F36
:10404800B84200F09280564FB84200F09380DFF8F3
:104058005CA1504500F09380DFF854A150450CBF97
:104068004FF0080A4FF0090A0AFA08FA4AEA090A58
:10407800C2F808A032686FEA0408EF034CBF224375
:1040880008EA020232607268AF034CBF224308EAB2
:1040980002027260B268EF024CBF224308EA0202D1
:1040A800B260F268AD0203F1010354BF08EA0204EA
:1040B8001443102BF4607FF45BAF05B0BDE8F08FBC
:1040C8004FEAD30900EB890903F00708D9F8202043
:1040D8004FEA88084FF00F0A0AFA08FA22EA0A0A91
:1040E8000A6902FA08F24AEA0202C9F820204FEAED
:1040F80043090322D0F800A002FA09F2D24305F0DE
:10410800030802EA0A0A08FA09F84AEA0808C0F89D
:104118000080D0F80880CF6802EA080A07FA09F890
:104128004AEA0808C0F80880D0F804A0C5F30018C7
:104138002AEA040A08FA03F84AEA0808C0F80480D8
:104148003BE74FF0010A0AFA08FA8FE74FF0020A34
:104158000AFA08FA8AE74FF0030A0AFA08FA85E722
:104168004FF0040A0AFA08FA80E74FF0050A0AFA3B
:1041780008FA7BE74FF0060A0AFA08FA76E74FF0E2
:10418800070A0AFA08FA71E7003C014000040240F5
:1041980000080240000C02400010024000140240D7
:1041A800001802400038024000000240001C024093
:1041B800002002400369194214BF01200020704703
:1041C80002B90904816170474369594041617047E8
:1041D800104B11481A68002142F081021A60996058
:1041E8001A6822F0A16222F480321A6059605A6873
:1041F80010435860C3F88410D3F8842042F000526A
:1042080042F44052C3F884201A6822F480221A60CB
:10421800D96070470038024010300004F0B50368D8
:10422800DE0783B0044637D5A5498A6802F00C0238
:10423800042A00F0F4808A6802F00C02082A00F0D0
:10424800EA80A04B9E4D00221A70FFF721FE41F232
:104258008836074605E0FFF71BFEC01BB04200F298
:10426800C9802B689903F6D4964B22791A70636833
:10427800002B00F01081FFF70BFE914D074641F22D
:10428800883605E0FFF704FEC01BB04200F2B2809A
:104298002B689A03F6D523689F072ED5884A91681C
:1042A80011F00C0F00F0AD80916801F00C010829A5
:1042B80000F0A380E368002B00F0DC80824B804D87
:1042C80001221A60FFF7E4FD064605E0FFF7E0FD6E
:1042D800801B642800F28E802B68794A9807F5D5F0
:1042E8001168F82090FAA0F02369B0FA80F021F064
:1042F800F80183400B43136023681A0720D458073A
:1043080034D4A369CBB16E4DAA6802F00C02082A16
:104318007ED0022B6D4B4FF000021A6000F0CB806C
:10432800FFF7B6FD2C46054604E0FFF7B1FD401B3C
:1043380064285FD823689B01F7D4002003B0F0BD40
:104348006369002B75D0624B5D4D01221A60FFF73F
:104358009FFD064604E0FFF79BFD801B642849D8B3
:104368006B6F9B07F7D523685807CAD5544B594D2F
:10437800002201921A6C42F080521A641B6C03F0FE
:1043880080530193019B2B6843F480732B60FFF7E4
:104398007FFD064604E0FFF77BFD801B642829D8D3
:1043A8002B68D905F7D54C4B454D00221A70FFF7FD
:1043B8006FFD41F28836074604E0FFF769FDC01B30
:1043C800B04217D82B6F9A07F7D4434B227A1A704A
:1043D800A368002B00F0C280FFF75AFD384D07464E
:1043E80041F288362B6F9B078BD4FFF751FDC01B1A
:1043F800B042F7D9032003B0F0BD526856023FF52A
:1044080059AF2F4A1268950723D5E268012A20D0B0
:10441800012003B0F0BD4A6855027FF512AF284A63
:10442800126890037FF538AF6268002A7FF434AFD2
:10443800EEE7274A224D1360FFF72AFD064604E0FF
:10444800FFF726FD801B6428D4D86B6F9F07F7D42D
:1044580089E71B4DF820296890FAA0F02269B0FA84
:1044680080F021F0F80182400A432A601A077FF59C
:1044780046AF65E7144A124D1360FFF709FD06467B
:1044880004E0FFF705FD801B6428B3D82B68990763
:10449800F7D4236831E7FFF7FBFC094D074641F2E3
:1044A800883604E0FFF7F4FCC01BB042A2D82B68A2
:1044B8009B03F7D4EFE6FFF7EBFC064613E000BFDB
:1044C800003802400238024000004742600047427C
:1044D800800E47420070004070380240FFF7D8FC59
:1044E800801B642886D82B68244A9901F6D447F69D
:1044F800C07797FAA7F74FF44036B7FA87F796FAD6
:10450800A6F64FF07060B6FA86F690FAA0F0A36AA5
:10451800656AD4F820C0D4F81CE0E16AB0FA80F0EB
:104528005B0805FA07F4013B4CEA0E052C43B3403F
:104538008140234312480B43012153600160144614
:10454800FFF7A6FC054605E0FFF7A2FC401B642820
:104558003FF650AF23689A01F6D5EEE6FFF798FCD0
:10456800064D074641F288362B6F98077FF5C9AE8E
:10457800FFF78EFCC01BB042F6D93BE7003802407B
:10458800600047427C4A136803F00F038B422DE911
:10459800F0410C46054609D2CBB21370136803F0FC
:1045A8000F038B4258D00120BDE8F08103689A07B9
:1045B80006D57248AA68816821F0F0010A43826032
:1045C800DF0727D56B68012B79D09A1E012A6B4A21
:1045D800126840F287809107E5D5684EB26822F0EC
:1045E80003021343B360FFF753FC6B68012B0746C4
:1045F8007CD0022B00F08880032B65D041F28838EC
:1046080004E0FFF745FCC01B404565D8B36813F0CC
:104618000C0FF6D1584BE2B21A701B6803F00F0367
:10462800A342C0D12B685A0706D55448EA68816866
:1046380021F4E0510A4382601B0707D54F4A2969D4
:10464800936823F4604343EAC10393600F20FCF7A7
:10465800B3FA0020BDE8F08103689F0706D54748F4
:10466800AA68816821F0F0010A438260DE07DAD582
:104678006B68012B56D09A1E012A404A12682ED91F
:10468800910790D53D4CA26822F003021343A36022
:10469800FFF7FEFB6B68012B064648D0022B54D06F
:1046A800032B60D041F2883704E0FFF7F1FB801B51
:1046B800B84211D8A36813F00C0FF6D1B2E72F4A0D
:1046C8001268960389D46EE741F28834B368FFF71D
:1046D800DFFBC01BA042F9D90320BDE8F08190019F
:1046E800D0D460E790013FF578AF5CE741F28838B5
:1046F80004E0FFF7CDFBC01B4045EDD8B36803F0DD
:104708000C03042BF5D185E741F2883804E0FFF764
:10471800BFFBC01B4045DFD8B36803F00C03082B70
:10472800F5D177E7154A12689403ABD43BE741F219
:10473800883704E0FFF7ACFB801BB842CCD8A368ED
:1047480003F00C03042BF5D16CE741F2883704E041
:10475800FFF79EFB801BB842BED8A36803F00C038A
:10476800082BF5D15EE741F28835A368FFF790FB87
:10477800801BA842F9D9AFE7003C0240003802404C
:104788001C498B6803F00C03042B31D0082B2DD166
:104798004A6830B44D6802F03F0447F6C0734A686F
:1047A800690293FAA3F347F6C07000EA02004ABF11
:1047B8001149124AB1FBF4F20E49B3FA83F320FA15
:1047C80003F058BFB2FBF4F202FB00F34FF440329F
:1047D800486892FAA2F200F44030B2FA82F2D0406D
:1047E8000130400030BCB3FBF0F07047034870471D
:1047F800014870470038024000127A000024F40093
:1048080010B5FFF7BDFF084BF0229B6892FAA2F2A1
:1048180003F0F003B2FA82F2044C0549D340E35C9A
:10482800D840086010BD00BF00380240B0730008CF
:104838006001002008B5FFF7E3FF074B4FF4E05293
:104848009B6892FAA2F203F4E053B2FA82F20349A7
:10485800D340CB5CD84008BD00380240B073000894
:1048680008B5FFF7CDFF074B4FF460429B6892FAFB
:10487800A2F203F46043B2FA82F20349D340CB5C5C
:10488800D84008BD00380240B0730008704700BF28
:104898002DE9F0410468C7682369C569D0F810C0DC
:1048A8008268416923F4405E4EEA0707064680693C
:1048B8002761E3684CEA020223F416430A4323F013
:1048C8000C032A431343E360636923F440730343EF
:1048D800B5F5004F6361514B39D09C4200F081809F
:1048E80003F580639C427CD0FFF7A4FF75684C4FAA
:1048F80000EB800000EB8000AD00B0FBF5F5FFF7A2
:1049080099FFA7FB053572686D0900EB800000EB85
:10491800800092002D01B0FBF2F8FFF78BFF716861
:1049280000EB800000EB80008900B0FBF1F1A7FBF1
:1049380001314909642202FB118212013232A7FBBC
:104948000223C3F343132B43A360BDE8F0819C42C9
:1049580025D003F580639C4221D0FFF76BFF756873
:104968002F4F00EB800000EB80006D00B0FBF5F5E9
:10497800FFF760FF726800EB800000EB80005200D8
:10498800B0FBF2F8FFF756FFA7FB053571686D0914
:1049980000EB80002D0100EB80004900C5E7FFF720
:1049A8005FFF75681E4F00EB800000EB80006D0014
:1049B800B0FBF5F5FFF754FF726800EB800000EBE1
:1049C80080005200B0FBF2F8FFF74AFFA7FB05355D
:1049D80071686D0900EB80002D0100EB8000490033
:1049E800A3E7FFF73DFF75680D4F00EB800000EB74
:1049F8008000AD00B0FBF5F5FFF732FFA7FB0535EA
:104A080072686D0900EB800092002D0100EB8000B8
:104A1800B0FBF2F8FFF724FF81E700BF0010014068
:104A28001F85EB51F8B506460C461546FFF730FAD8
:104A38000746326801E06B1C05D1136823409C428D
:104A4800F9D10020F8BD2DB1FFF722FAC01B85422D
:104A5800EFD23268D36823F08003D360D36823F0A1
:104A68002003D360D36823F48073D360536901248F
:104A780023F0010300215361032086F8394086F8AA
:104A88003810F8BD704700BF50B338B590F83930CA
:104A9800044603F0FF02F3B12268022384F8393098
:104AA800D36823F40053D3602046FFF7F1FE236850
:104AB8001A6922F490421A615A6922F02A025A614C
:104AC800DA68002142F400520125DA600846E16301
:104AD80084F8395038BD80F83820FFF7D3FFDBE77A
:104AE80001207047704700BF68B110B50223044623
:104AF80080F83930FFF7F6FF0020E06384F83800CB
:104B080084F8390010BD0120704700BF2DE9F0413D
:104B18000E4690F83910C9B201290446984604D0C7
:104B2800222902D00220BDE8F081002E36D0002ACA
:104B380034D094F83830012BF4D00023E36394F890
:104B48003930A284222B4FF001010CBF32231223EB
:104B580084F8381084F83930154608E0FFF762FF0A
:104B680028BB236832785A600136E58CCDB1A76836
:104B7800013DB7F5805F20464FF080014246E5844D
:104B8800ECD1FFF74FFF90B9338821682269C3F34E
:104B980008034B60002AE7D10236E6E70120BDE8AA
:104BA800F081424620464021FFF73CFF10B1032028
:104BB800BDE8F08194F83930322B0CBF2223012351
:104BC80084F83930002384F83830BDE8F08100BF1C
:104BD800BFF34F8F0549064BCA6802F4E0621343DE
:104BE800CB60BFF34F8F00BFFDE700BF00ED00E0D3
:104BF8000400FA05F0B504468DB000200F461646AD
:104C08001D4601460DF12E03D022FFF789F82060DA
:104C1800076023685E6023689D6023681D686A6872
:104C280000200DF12E0392000146FFF779F8286065
:104C38002068104C90F80CE04268836850F8107BAC
:104C48000D497E68CDF800E03F680197A4FB06E4B3
:104C580000254FF0030EE4080BAF02940396049569
:104C680005950695CDF81CE00897FCF74DFE2846FB
:104C78000DB0F0BDCDCCCCCCA072000841600020B6
:104C8800704700BF036800201973704700B583B0F0
:104C980006490DF10603FEF7E3FBBDF806000030F8
:104CA80018BF0120404203B05DF804FBA072000861
:104CB80000B583B04FF400710DF10602FEF70AFD4E
:104CC800BDF80600003018BF0120404203B05DF86F
:104CD80004FB00BF00B585B000210DF10E03009361
:104CE8000A460B46FEF7F0FBBDF80E00003018BF71
:104CF8000120404205B05DF804FB00BF00230029F5
:104D0800036043608360C360436107DD0161026043
:104D180012B1C260426082600020704703610020C7
:104D2800704700BFF0B4C7680546002F31D0002A8D
:104D380024DD8368406883422ED084BF2C69001923
:104D4800C01A9042A8BF1046002815DD002619B1E8
:104D58001B788B55AB68EF682C69013C01333C44E8
:104D6800A34206F10106AB6084BFAF603B468642B2
:104D7800EDDB6A689A4208D0F0BC70470020F0BCAE
:104D88007047002AA8BF0022104600236B61F0BCC0
:104D980070473846F0BC704768690028F1D0286928
:104DA8009042A8BF10460028D0DCEEE7F0B40446D5
:104DB800C06818B361B3002A24DDA0686568A842FA
:104DC8001ED03CBF2369C018401B00281ADD904242
:104DD800A8BF10460F1811F8013B2B702369E6682D
:104DE8006568013B013533449D42656084BF666058
:104DF8003546B942EFD1A368AB4206D0F0BC704744
:104E080063693BB10020F0BC704701236361F5E79B
:104E18000846F3E72069D8E7084B1A680AB908E09A
:104E28001A46936B002BFBD10023906383631846CB
:104E3800704718600023836318467047DC0400201D
:104E480038B50F4B1C68054614B912E0A46B84B141
:104E5800E06A6968FBF778FB0028F7D1226B0AB98A
:104E68000AE01A461369002BFBD10020156128615E
:104E780038BD4FF0FF3038BD00202563286138BDAC
:104E8800DC04002038B5054C054DAC4204D254F87A
:104E9800043B9847AC42FAD3002038BD6003002099
:104EA8006C0300202DE9F843154B1F681FB3884693
:104EB80006464FF000093C6B00251CB916E0246932
:104EC80001359CB120683146FBF73EFB0028F6D13E
:104ED8007B6920464146984700280CDB4FEA0923A6
:104EE80003F47F43E8B21843BDE8F883BF6B09F1C8
:104EF8000109002FDFD14FF0FF30BDE8F88300BF74
:104F0800DC0400200D4B30B4C0F30724C5B21B6885
:104F18001CB173B1013C9B6BFBD153B1186B1DB134
:104F280038B1013D0069FBD118B11B6A0BB130BC27
:104F380018474FF0FF3030BC704700BFDC0400203A
:104F48000D4B30B4C0F30724C5B21B681CB173B154
:104F5800013C9B6BFBD153B1186B1DB138B1013DBE
:104F68000069FBD118B1DB690BB130BC18474FF0B1
:104F7800FF3030BC704700BFDC0400200D4B30B45C
:104F8800C0F30724C5B21B681CB173B1013C9B6B0D
:104F9800FBD153B1186B1DB138B1013D0069FBD18C
:104FA80018B15B6A0BB130BC18474FF0FF3030BC0A
:104FB800704700BFDC0400202DE9F0430646304866
:104FC80087B04FF0000E04680E9DCDF80CE0C6F3D4
:104FD800072099460F469046F3B2CDF810E0CDF879
:104FE80014E020B1002C45D00138A46BFAD1002C74
:104FF80040D0206B23B100283CD0013B0069FAD196
:10500800002837D0A46A002C34D00FB101230393B1
:10501800B8F1000F01D001230493B9F1000F01D0BA
:10502800012305938DB16B6816492D6881FB03E256
:10503800DB17C3EBA2134FF47A7202FB03F3A1FB55
:10504800031302FB05F505EB9315009503A904AAC4
:1050580005ABA04700280FDD039B03B13E60049B0E
:105068000BB1C8F80060059B33B1C9F8006007B000
:10507800BDE8F0834FF0FF3007B0BDE8F08300BF14
:10508800DC040020D34D62104FF0FF330B607047F3
:105098000B68181AB0FA80F0400970474FF0FF30DB
:1050A800704700BF2DE9F04F2D4C00214FF4F872E6
:1050B80083B0204601F0FCFB2A4B1B6808225908E4
:1050C8009D089E094FEAD30A4FEA13184FEA531E68
:1050D80028274FF0100B4FF018094FF0200C302004
:1050E800C4F8D01084F8DC20D909C4F8D850D340CB
:1050F80000253822C4F8F86084F8E4B0C4F8E0A0C9
:1051080084F8EC90C4F8E88084F8F4C0C4F8F0E0BF
:1051180084F8FC7084F80401C4F80011C4F808315C
:1051280084F80C2184F8D450E61905F17002304651
:10513800224420352021FFF7E1FD602D06F11806F5
:10514800F3D10949064800220DF10603FCF736F8A9
:105158000648FFF761FE002003B0BDE8F08F00BFEE
:10516800281B012060010020A072000864010020B3
:105178002DE9F04F8368C468032BADB000F20183BA
:10518800012B054600F02E81022B1BD0002B00F0CE
:105198001281A74E0223002228932A93299223786A
:1051A800FF2B41D01A0903F00F03082A2FD8DFE894
:1051B80012F0DB02CE02C102B402A7029A02220058
:1051C8008D027E029B4B9A4E9B489C49002202927C
:1051D8001A6C42F400421A641B6CC6F8980103F476
:1051E8000043029333200623029A2B934FF033088F
:1051F800FBF730FDCEE78F4900200990086B40F09F
:1052080040000863096B01F04001099109998C4F2E
:105218008C4803EB43032CA937F8233041F8143D9D
:1052280050F82200FEF794FE6378FF2B28D01A0965
:1052380003F00F03082A16D8DFE812F02C021F0229
:1052480012020502F801EB010900DE01D1017949DA
:1052580000201290086B40F040000863096B01F0D1
:10526800400112911299764F764803EB43032CA91B
:1052780037F8233041F8143D50F82200FEF768FE55
:10528800A378FF2B28D01A0903F00F03082A16D891
:10529800DFE812F098018B017E017101640157016A
:1052A80009004A013D01634900201B90086B40F04A
:1052B80040000863096B01F040011B911B99604F86
:1052C800604803EB43032CA937F8233041F8143D19
:1052D80050F82200FEF73CFEE378FF2B28D01A098D
:1052E80003F00F03082A16D8DFE812F00401F700CC
:1052F800EA00DD00D000C3000900B60094004D4963
:1053080000202490086B40F040000863096B01F00E
:105318004001249124994A4C4A4803EB43032CA9A1
:1053280034F8233041F8143D50F82200FEF710FEFF
:10533800A868582707FB00F033184FF0280A002404
:10534800C3F804A14FF00709E8304FF4827B4FF40B
:10535800007AC3F80841C3F8F040C3F8ECB0C3F8CA
:10536800FC40C3F800A1C3F8F840C3F8F440C3F800
:105378001041C3F80C41C3F814914FFA88F830442F
:10538800FEF712FD224649464046FEF79FFD40467D
:10539800FEF7D2FDAB6807FB03662046D6F8E83077
:1053A8005A6842F040025A601A6842F040021A6095
:1053B8002DB0BDE8F08F1F4A0093536C1C4E224855
:1053C800224943F480535364536CC6F8E80003F44D
:1053D8008053009323200523009A2B938046FBF7E4
:1053E80039FCD7E6134B124E19481A49002201928C
:1053F8001A6C42F480421A641B6CC6F8400103F42C
:105408008043019324200523019A2B938046FBF7C0
:1054180021FCBFE6074900202690086B40F4807005
:105428000863096B01F480712691269973E700BF20
:10543800281B012000380240003C0040095B00089E
:10544800DC0100209C02002000300140895A00083D
:1054580000380040C95A00089B4900202590086B75
:1054680040F080000863096B01F0800125912599BF
:1054780051E7954900202390086B40F0200008630D
:10548800096B01F020012391239944E78E490020FC
:105498002290086B40F010000863096B01F01001BE
:1054A8002291229937E7884900202190086B40F023
:1054B80008000863096B01F00801219121992AE786
:1054C800814900202090086B40F004000863096BB4
:1054D80001F00401209120991DE77B4900201F90CD
:1054E800086B40F002000863096B01F002011F918C
:1054F8001F9910E7744900201E90086B40F00100C6
:105508000863096B01F001011E911E9903E76E49BA
:1055180000201D90086B40F480700863096B01F44B
:1055280080711D911D99CAE6674900201C90086B7F
:1055380040F080000863096B01F080011C911C9900
:10554800BDE6614900201A90086B40F0200008630E
:10555800096B01F020011A911A99B0E65A49002006
:105568001990086B40F010000863096B01F01001F6
:1055780019911999A3E6544900201890086B40F036
:1055880008000863096B01F008011891189996E65C
:105598004D4900201790086B40F004000863096B20
:1055A80001F004011791179989E6474900201690E0
:1055B800086B40F002000863096B01F002011691C4
:1055C80016997CE6404900201590086B40F00100D0
:1055D8000863096B01F00101159115996FE63A49C5
:1055E80000201490086B40F480700863096B01F484
:1055F80080711491149936E6334900201390086B92
:1056080040F080000863096B01F080011391139941
:1056180029E62D4900201190086B40F0200008630E
:10562800096B01F02001119111991CE6264900200F
:105638001090086B40F010000863096B01F010012E
:10564800109110990FE6204900200F90086B40F048
:1056580008000863096B01F008010F910F9902E631
:10566800194900200E90086B40F004000863096B8C
:1056780001F004010E910E99F5E5134900200D90F3
:10568800086B40F002000863096B01F002010D91FC
:105698000D99E8E50C4900200C90086B40F00100DA
:1056A8000863096B01F001010C910C99DBE50649CF
:1056B80000200B90086B40F480700863096B01F4BC
:1056C80080710B910B99A2E5003802402E49002009
:1056D8000A90086B40F080000863096B01F08001B4
:1056E8000A910A9993E5284900200890086B40F030
:1056F80020000863096B01F020010891089986E5EC
:10570800214900200790086B40F010000863096BDE
:1057180001F010010791079979E51B4900200690CF
:10572800086B40F008000863096B01F00801069156
:1057380006996CE5144900200590086B40F00400B8
:105748000863096B01F00401059105995FE50E49AD
:1057580000200490086B40F002000863096B01F018
:1057680002010491049952E5074900200390086B4F
:1057780040F001000863096B01F0010103910399EE
:1057880045E54FF0FF3013E6003802408368032BED
:1057980000F268812DE9F04F822987B0044600F0B5
:1057A800258143DD842900F00F81C0F2F48085292A
:1057B80061D1B24DD2F800E02846002B4FF0020626
:1057C8000CBF04273746D0F8E010B1FBF7F18E453F
:1057D80032460AD308381646511E3AB10A46D0F85E
:1057E800E010B1FBF7F18E45F4D23246582606FB9D
:1057F80003F305EBC202E91803F1E80092F8D4209C
:10580800C1F804212844FEF7CFFAA36806FB035524
:105818000020D5F8E8305A6842F040025A601A6809
:1058280042F040021A6007B0BDE8F08F012927D086
:10583800052920D1914D582101FB035195F8D40039
:10584800D1F80411002B0CBF04240224814200F07B
:10585800138195F8DC00814200F0078195F8E40097
:10586800814208BF022300F0018100230020136059
:1058780007B0BDE8F08F4FF0FF3007B0BDE8F08FFC
:10588800D2F80CE091680391D2F800905768BEF105
:10589800000F00F0DB80794D2E46002B4FF00208F8
:1058A8000CBF4FF0040AC246D6F8E000B0FBFAF08D
:1058B800864541460AD3083E8846481E39B1014606
:1058C800D6F8E000B0FBFAF08645F4D2414605EB85
:1058D800C101582000FB035091F8D410C0F80411FE
:1058E800127D4AB15821102A01FB03520CBF4FF414
:1058F80000610021C2F8F410582606FB0350E83076
:10590800FEF752FAA36806FB0355D5F8E82051685C
:1059180041F040015160116841F040011160039A63
:10592800002A00F08F80554D16464FF0580A22463F
:105938004C460DF1160B91464FF001080AFB035235
:105948001CB3D2F8E82014F8011BD160002208FA31
:1059580003F100924FF484730A224848CDF804B04A
:10596800FBF762FCD9F8083008FA03F210425DD15F
:105978001FB19DF8153007F8013B013E62D0D9F8F8
:1059880008300AFB0352002CDBD10AFB0352D2F881
:10599800E820D460DAE71268384D582606FB03F38E
:1059A800002A05EB030203F1E80014BF802100215F
:1059B8002844C2F80811FEF7F7F9A26806FB02535B
:1059C8000020D3F8E83026E712682C4D582606FB4D
:1059D80003F3102A05EB030203F1E8000CBF4FF4B0
:1059E800006100212844C2F8F410E4E71268234D4E
:1059F800D00741BF582101FB03510220C1F8F8002C
:105A0800910705D5582101FB03510120C1F8FC007D
:105A180012F0080220D0582202FB03528021C2F85B
:105A28000811582606FB0350E830ECE6134A03EB4E
:105A3800430302EBC3000DF1150101222830FFF7E3
:105A480071F995E7039807B0BDE8F08F127D002A39
:105A58003FF465AF094D45E7582101FB0351C1F8F3
:105A68000821DEE74FF0FF30704701231A3355F85D
:105A78003330B3FBF4F3F9E60023F7E7281B0120E2
:105A880070B50C4CD4F8E8309A68D20700D470BDD1
:105A9800002509499D60DB680B7004F1280001228C
:105AA800FFF784F920462A460121044BBDE87040DF
:105AB800FBF7A6BD281B0120E8040020E204002013
:105AC80070B50C4CD4F840319A68D20700D470BD38
